:100000007DC000009AC0000098C0000096C00000AB
:1000100094C0000092C0000090C000008EC000009C
:100020008CC000008AC0000088C0000086C00000AC
:1000300084C0000082C0000080C000007EC00000BC
:100040007CC000007AC0000078C0000076C00000CC
:1000500074C0000072C0000070C000006EC00000DC
:100060006CC000006AC0000068C0000066C00000EC
:1000700064C0000062C0000060C000005EC00000FC
:100080005CC000005AC0000058C0000056C000000C
:1000900054C0000052C0000050C000004EC000001C
:1000A0004CC000004AC0000048C0000046C000002C
:1000B00044C0000042C0000040C000003EC000003C
:1000C0003CC000003AC0000038C0000036C000004C
:1000D00034C0000032C0000030C000002EC000005C
:1000E0002CC00000A802A502B502A202B502B2020D
:1000F000A002B502AE02B002AC02AA0211241FBED9
:10010000CFEFD1E2DEBFCDBF00E00CBF13E0A0E037
:10011000B2E0EAE7F7E000E00BBF02C007900D9203
:10012000A83AB107D9F723E0A8EAB3E001C01D92CD
:10013000AD3BB207E1F7E4D21EC362CF84B1876161
:1001400084B984B1877F84B985B1816185B983E53C
:100150008CBD1DBC089595B19F7E95B982608EBD02
:100160000DB407FEFDCF8EB56EBD0DB407FEFDCFFD
:100170008EB585B1806185B9089595B19F7E95B999
:1001800083608EBD0DB407FEFDCF8EB56EBD0DB480
:1001900007FEFDCF8EB585B1806185B9089595B113
:1001A0009F7E95B98EBD0DB407FEFDCF8EB51EBCEA
:1001B0000DB407FEFDCF85B1806185B98EB5089578
:1001C00095B19F7E95B981608EBD0DB407FEFDCFC0
:1001D0008EB51EBC0DB407FEFDCF85B1806185B91B
:1001E0008EB50895FA0195B19F7E95B98EBD0DB477
:1001F00007FEFDCF8EB580E007C01EBC0DB407FE24
:10020000FDCF9EB591938F5F8617B8F385B180615E
:1002100085B90895FA0195B19F7E95B982608EBD2A
:100220000DB407FEFDCF8DB580E009C09EB590816D
:100230009EBD0DB407FEFDCF9EB531968F5F86172C
:10024000A8F385B1806185B9089560E288E783DF0E
:1002500060E088E780DF88E6A2DF80FFFCCF0895BA
:1002600060E380E678DF68E880E775CF0895109254
:10027000AE031092AD0388E48093B80381E08093CD
:10028000BC038093BB031092BA031092B90310927F
:10029000AA031092A9031092AB031092A803109224
:1002A000AC034CDF6BE188E856DFCFDF60E080EA2B
:1002B00052DF68E088E74FDFD3DF61E080E84BCFB3
:1002C000089588E66CDF82FF09C080EA68DF682F46
:1002D0006B7F80EA40DF1092A80308958091AC0301
:1002E000882351F180EA5BDF86FD26C080EA57DF74
:1002F000682F6B7F80EA2FDF1092A80388E74FDF1B
:10030000682F646088E727DF88E649DF81FFFCCF3C
:1003100088E745DF682F6B7F88E71DDF62E088E6AE
:100320001ADF80EA3CDF86FFFCCF64E088E613DF5B
:1003300088E635DF82FFFCCF089580910001829529
:1003400086958695837091E0892781700895CF9373
:10035000DF93E0EBF3E02681878190E0982F8827F8
:10036000820F911D2381233091F028F4213031F147
:10037000223041F004C02132B9F02232D1F060E0E5
:1003800070E020C043E753E062E270E01BC04091A0
:10039000B20320E4429FA0011124FA01E85BFD4F63
:1003A000608170E0AF010EC045E853E069E070E0A5
:1003B00009C048E453E06BE270E004C045E953E053
:1003C00062E170E06115710561F0EB018617970736
:1003D00008F4EC016C2F80E01DDF6C2F88E2CDDE8D
:1003E00003C063E288E4B7DEDF91CF910895CF9335
:1003F000C82F8091B0038230F1F49091B203911133
:100400001AC09091B4039338B1F488E4C8DEC130C7
:1004100031F4C0E1C80F81E08093AE0307C0C82F5C
:10042000CF7E1092AE0360E180E595DE6C2F6064B4
:1004300088E491DE0FC081110AC08091B20381303F
:1004400031F4CC0FC093AC0388E9BADE03C063E299
:1004500088E481DECF9108958091B003813881F0E6
:100460008238C1F0803841F56091AC036F5F80E065
:1004700072DE60E080E06FDE62E088E27ECE0895AA
:1004800060E080E068DE60E080E065DE62E088E2F7
:1004900074CE08958091B403833859F46091AE030B
:1004A00080E059DE60E080E056DE62E088E265CE02
:1004B000089563E288E44FDE63E288E44CCE089559
:1004C0008091B203811107C08091B403811103C0F0
:1004D00088E976CE089563E288E43DCE0895809160
:1004E000B403811106C060E036DE61E088E245CEEB
:1004F000089563E288E42FCE08956091AB0380E015
:100500002ADE61E088E239CE08958091B2038093BB
:10051000AB03882331F080E742DE682F606180E71B
:100520001ADE88E94DCE08958091B10390E08C30B9
:100530009105D8F4FC018827EE58FF4F8F4F13C167
:1005400006CF089581E053CF089580E050CF0895FD
:1005500083CF0895B5CF0895C2CF0895CECF089523
:10056000D4CF089588E92CCE089563E288E4F3CDD2
:10057000089563E288E4EFCD089563E288E4EBCD6B
:10058000089540EB53E068E080E22CDE8091B003F8
:100590008076803231F0803431F0811106C0C4CFD2
:1005A0000895E7CF0895E9CF089563E288E4D3CDB5
:1005B00008958091BC03813051F460E088E1CBDD87
:1005C00060E088E1C8DD60E088E1C5DD47C080917A
:1005D000BB03813061F460E088E1BDDD60E088E16B
:1005E000BADD60E088E1B7DD1092BB0337C081E07F
:1005F0008093BB03E091AD038E0F8093AD03F0E0D9
:10060000E050FE4F608188E1A6DDE091AD0381E01E
:100610008E0F8093AD03F0E0E050FE4F608188E1E3
:100620009ADDE091AD0381E08E0F8093AD03F0E0A1
:10063000E050FE4F608188E18EDD9091AD038091A6
:10064000B803981758F01092AD0380EAA8DD682F20
:100650006E7F80EA80DD81E08093BC0363E080E40C
:100660007ACD0895CF93DF9388E599DDC82F88E68A
:1006700096DDD82FC5FF04C060E288E56CDD81DF20
:10068000C4FD97DF8091AB038823A1F0D4FF12C093
:1006900064E188E660DD80EA82DD682F646080EADC
:1006A0005ADD80EA7CDD682F677F80EA54DD81E0D7
:1006B0008093A80388E673DD83FF0FC080EA6FDDB7
:1006C000682F626080EA47DD80EA69DD682F6B7F12
:1006D00080EA41DD68E088E63EDD88E660DD88236B
:1006E00064F480EA5CDD682F6D7F80EA34DD60E8C9
:1006F00088E631DD1092A803B3DDDF91CF91089534
:10070000B6DD8091A8038111DCDD17DE8111AADF3F
:100710008091B9039091BA0301969093BA038093A4
:10072000B9038837974369F71092BA031092B90357
:1007300080EA35DD84FF1092BC038091A90390917B
:10074000AA0301969093AA038093A9034997C9F637
:100750001092AA031092A90380EA21DD68E06827BD
:1007600080EAF9DCCECFEE0FFF1F881F8BBF07900A
:0A077000F691E02D1994F894FFCFE4
:10077A0000002802001700000B00000800002C02ED
:10078A00001002000402001B0000200000210000EB
:10079A001F00001E02000800002C000007000012C3
:1007AA0000000800001600002C02001802001602C1
:1007BA00000502001E0000280403090400000000CE
:1007CA00000000000000000000000000000000001F
:1007DA00000000000000000000000000000000000F
:1007EA0000000000000000000000000000000000FF
:1007FA0000000000000000000B034D0061007800BB
:10080A0069006D0000000000000000000000000008
:10081A0000000000000000000000000000000000CE
:10082A0000000000000000000000000000000000BE
:10083A00000000000000000018034D0041005800AD
:10084A0033003400320031004500200045006E00BC
:10085A0075006D00200043006F0064006500000011
:10086A00000000000000000000000000000000007E
:10087A000000000000000000140353002F004E0087
:10088A00200033003400320031004500000000002F
:10089A00000000000000000000000000000000004E
:1008AA00000000000000000000000000000000003E
:1008BA00000000000000000005010906A10105076B
:1008CA0019E029E7150025017501950881029501AE
:1008DA0075088101190029651500256575089501B6
:1008EA008100C009022200010100E00109040000A0
:1008FA000103000000092110010001222B00070555
:10090A00830340000A12010001000000406A0B46FE
:08091A00533412010203010035
:00000001FF
