:1000000071C0000086C0000084C0000082C00000F3
:1000100080C000007EC000007CC000007AC00000EC
:1000200078C0000076C0000074C0000072C00000FC
:1000300070C000006EC000006CC000006AC000000C
:1000400068C0000066C0000064C0000062C000001C
:1000500060C000005EC000005CC000005AC000002C
:1000600058C0000056C0000054C0000052C000003C
:1000700050C000004EC000004CC000004AC000004C
:1000800048C0000046C0000044C0000042C000005C
:1000900040C000003EC000003CC000003AC000006C
:1000A00038C0000036C0000034C0000032C000007C
:1000B00030C000002EC000002CC000002AC000008C
:1000C00028C0000026C0000024C0000022C000009C
:1000D00020C000001EC000001CC000001AC00000AC
:1000E00018C0000011241FBECFEFD1E2DEBFCDBF8C
:1000F00000E00CBF12E0A0E0B2E0E6E2F5E000E0D4
:100100000BBF02C007900D92AA32B107D9F7A9D14F
:1001100008C276CF81E480937C00EAE7F0E080813A
:100120008068808310927B000895EAE7F0E0808188
:1001300080648083808186FDFDCF809178009091DE
:1001400079000895E2E0F1E080818064808384E6B4
:1001500090E000000197E9F7E2E0F1E080818F7B19
:10016000808384E690E000000197E9F70895E2E0DB
:10017000F1E0208190E0AC01440F551F4871277ECB
:10018000242B20832EB1AC01440F551F440F551F63
:100190004870277F242B2EB924B3880F991F82958E
:1001A0009295907F9827807F98278072922F9F7DCD
:1001B000892B84BB0895CF93C82FE2E0F1E08081C2
:1001C0008062808300008C2F82958F70D0DF0000CA
:1001D000B9DF8C2FCCDF0000B5DFCF910895CF932E
:1001E000C82FE2E0F1E080818F7D80830000000075
:1001F0008C2F82958F70BBDF00000000A3DF000012
:1002000000008C2FB4DF000000009CDF8FE99FE02E
:100210000197F1F700C00000CF910895E1E0F1E00F
:100220008081886780836B9A9D9A2FEF80E792E0A8
:10023000215080409040E1F700C00000A59A739AD9
:1002400081DF8FE39CE90197F1F700C000007ADFBE
:100250008FE39CE90197F1F700C0000073DF8FE3A3
:100260009CE90197F1F700C00000A5986BDF88E2D8
:10027000B6DF88E0B4DF81E0B2DF86E0B0DF8CE09B
:10028000AECF089581E0ABDF8FE99FE00197F1F7F2
:1002900000C000000895623040F4803130F490E4F2
:1002A000699F800D112480689ACF089584CF0895A6
:1002B0000F931F93CF93DF93EC01CB0101978097AE
:1002C00040F48E01060F171F899175DFC017D10703
:1002D000D9F7DF91CF911F910F910895EF92FF927F
:1002E0000F931F93CF93DF93CDB7DEB760970FB611
:1002F000F894DEBF0FBECDBF8C01011580E8180752
:1003000009F460C0C801112324F488279927801BB1
:10031000910BFE0131969E01275F3F4FDF011D9239
:10032000A217B307E1F7009779F18A3091050CF431
:1003300042C020E030E00F2EFAE0EF2EF12CF02D3D
:1003400016C08A3091059CF4DE01A20FB31F805DB8
:1003500011968C931123ACF402C020E030E02F5FA3
:100360003F4FFE01E20FF31F8DE281830AC0B70108
:10037000B1D0805D8193862F972F2F5F3F4F0097DD
:1003800001F733231CF410C020E030E0DE01A20F9F
:10039000B31F1296FE013996C9014E914111408357
:1003A000019731969923CCF7B9016F5F7F4FCE014A
:1003B00009967EDF07C0805D8983112374F220E0F7
:1003C00030E0E4CF60960FB6F894DEBF0FBECDBF2D
:1003D000DF91CF911F910F91FF90EF9008958823A7
:1003E00011F08CE001C088E061118260F8DE8FE9D5
:1003F0009FE00197F1F700C00000089584E1EFCE7F
:1004000008950F931F93CF93DF93FC01C081D18197
:100410006C177D070CF18C0161E080E03CDF63E04C
:1004200070E080E292E044DF80DEC817D90744F034
:100430007CDE8C179D070CF4EC01C817D907C4F7B4
:10044000F801D183C083FFEF29E688E1F150204015
:100450008040E1F700C00000DF91CF911F910F9124
:100460000895CF93DF931F921F92CDB7DEB752DE70
:10047000D5DE81E41BDF60E085E00DDF82E416DF7E
:1004800061E080E008DF83E411DF61E088E003DF02
:1004900065E070E084E292E00BDFF4DE46DE1EDF12
:1004A000ADDF60E081E09BDF40DE9A838983883E98
:1004B0009340D4F768EE73E0CE010196A2DF898104
:1004C0009A81883E934084F7DDDE89819A8106DF38
:1004D00095DFEACF97FB072E16F4009406D077FD40
:1004E00008D00BD007FC05D03EF4909581959F4F26
:1004F0000895709561957F4F0895AA1BBB1B51E12C
:1005000007C0AA1FBB1FA617B70710F0A61BB70B83
:10051000881F991F5A95A9F780959095BC01CD0128
:060520000895F894FFCFDE
:100526003C33203C33203C33203C33203C330048D2
:10053600656C6C6F204D61726368656C6B61210040
:0A0546002A2A2A0048656C6C6F0039
:00000001FF
