S01000004C6162335F4C43442E73726563A0
S113000071C0000086C0000084C0000082C00000EF
S113001080C000007EC000007CC000007AC00000E8
S113002078C0000076C0000074C0000072C00000F8
S113003070C000006EC000006CC000006AC0000008
S113004068C0000066C0000064C0000062C0000018
S113005060C000005EC000005CC000005AC0000028
S113006058C0000056C0000054C0000052C0000038
S113007050C000004EC000004CC000004AC0000048
S113008048C0000046C0000044C0000042C0000058
S113009040C000003EC000003CC000003AC0000068
S11300A038C0000036C0000034C0000032C0000078
S11300B030C000002EC000002CC000002AC0000088
S11300C028C0000026C0000024C0000022C0000098
S11300D020C000001EC000001CC000001AC00000A8
S11300E018C0000011241FBECFEFD1E2DEBFCDBF88
S11300F000E00CBF12E0A0E0B2E0EAE3F6E000E0CA
S11301000BBF02C007900D92A231B107D9F709D2F3
S113011092C276CF81E480937C00EAE7F0E08081AC
S11301208068808310927B000895EAE7F0E0808184
S11301308064808380917A0086FDFCCF8091780072
S1130140909179000895E2E0F1E0808180648083F9
S113015080E090E002C00000019684369105DCF353
S1130160E2E0F1E080818F7B808380E090E002C058
S11301700000019684369105DCF30895E2E0F1E095
S1130180408190E09C01220F331F342F377E287169
S1130190232B20834EB19C01220F331F220F331FC8
S11301A0342F377F2870232B2EB924B3880F991F3F
S11301B082959295907F9827807F9827922F9F7D94
S11301C08072892B84BB0895CF93C82FE2E0F1E0BD
S11301D080818062808300008C2F82958F70CEDFB7
S11301E00000B1DF8C2FCADF0000ADDFCF9108958E
S11301F0CF93C82FE2E0F1E080818F7D80830000FF
S113020000008C2F82958F70B9DF000000009BDF07
S1130210000000008C2FB2DF0000000094DF8FE9A3
S11302209FE00197F1F700C00000CF910895E1E04D
S1130230F1E08081886780838DB188608DB983B354
S1130240806283BB2FEF80E792E021508040904092
S1130250E1F700C0000084B3806284BB8EB1886083
S11302608EB971DF8FE39CE90197F1F700C00000BC
S11302706ADF8FE39CE90197F1F700C0000063DFB8
S11302808FE39CE90197F1F700C0000084B38F7DF0
S113029084BB59DF88E2ACDF88E0AADF81E0A8DF15
S11302A086E0A6DF8CE0A4CF089581E0A1DF8FE98A
S11302B09FE00197F1F700C000000895623050F408
S11302C0803140F490E020E4629F800D911D112460
S11302D080688ECF089578CF0895EF92FF920F93A0
S11302E01F93CF93DF938C017B01613271055CF422
S11302F0C0E0D0E005C0F80181918F01ECDF2196C8
S1130300CE15DF05C4F3DF91CF911F910F91FF90BC
S1130310EF9008950F931F93CF93DF93CDB7DEB77C
S113032060970FB6F894DEBF0FBECDBF8C01811568
S113033060E8960731F463E070E080E092E0CDDF9E
S113034060C099232CF488279927801B910B00C047
S113035020E030E009C0E1E0F0E0EC0FFD1FE20F27
S1130360F31F10822F5F3F4F28303105A4F320E0A4
S113037030E027C08A309105ACF4805DE1E0F0E024
S1130380EC0FFD1FE20FF31F80831123E4F42F5FB2
S11303903F4FE1E0F0E0EC0FFD1FE20FF31F8DE2B1
S11303A0808311C06AE070E01FD1805DE1E0F0E07D
S11303B0EC0FFD1FE20FF31F8083862F972F2F5F13
S11303C03F4F0097B9F6C90114C0E1E0F0E0EC0F2B
S11303D0FD1FE80FF91F4081442351F0F901E81B88
S11303E0F90B69E070E06C0F7D1FE60FF71F408387
S11303F00197992354F7B9016F5F7F4FCE01099696
S11304006CDF60960FB6F894DEBF0FBECDBFDF91F0
S1130410CF911F910F910895811102C088E001C00E
S11304208CE061118260E4DE8FE99FE00197F1F7CF
S113043000C00000089584E1DBCE0895AF92BF921E
S1130440CF92DF92EF92FF920F931F93CF93DF939C
S1130450CDB7DEB72A970FB6F894DEBF0FBECDBF77
S1130460DC01CD90DC906C157D050CF449C05C0179
S113047061E080E023DF63E070E084E092E02DDF60
S1130480FE0131968AE0DF011D928A95E9F7860123
S1130490E12CF12C26C049DE8115B4E09B0709F15B
S11304A0F701EE0FFF1F21E030E02C0F3D1FE20F9C
S11304B0F31F91838083080F191F112314F40F5F16
S11304C01F4F159507958C159D050CF0C6013FEF40
S11304D0E31AF30AAFE8B1E01197F1F700C00000A6
S11304E06C01B5E0EB16F104B4F261E080E0E6DE05
S11304F063E070E088E092E0F0DEF50111830083B0
S11305002A960FB6F894DEBF0FBECDBFDF91CF9110
S11305101F910F91FF90EF90DF90CF90BF90AF901D
S11305200895CF93DF931F921F92CDB7DEB7F2DD0C
S11305307EDE81E4D0DE60E085E0C0DE82E4CBDEF6
S113054061E080E0BBDE83E4C6DE61E088E0B6DE25
S113055065E070E08CE092E0C0DEA7DEE6DDDADE86
S11305606ADF60E081E058DFD12CE12CF12C00E05F
S113057010E0DBDD9A838983843893402CF464E8AB
S113058073E0CE0101965ADF89819A8184389340C1
S113059084F785E0E80EF11C6D2D8E2D8FDE0F5F44
S11305A01F4F0330110551F461E084E087DEDD2440
S11305B0D3946894EE24E2F8F12C09C006301105B6
S11305C034F073DED12CE12CF12C00E010E08981B1
S11305D09A81A0DE9FEF21EE84E09150204080407C
S11305E0E1F700C00000C5CF97FB072E16F4009476
S11305F006D077FD08D00BD007FC05D03EF49095CB
S113060081959F4F0895709561957F4F0895AA1B1A
S1130610BB1B51E107C0AA1FBB1FA617B70710F0E9
S1130620A61BB70B881F991F5A95A9F7809590951B
S10D0630BC01CD010895F894FFCF3A
S113063A4F5646002A2A2A002020200048656C6C5E
S105064A6F003B
S9030000FC
