S00F00004D595F4D4944492E73726563ED
S11300007DC000009AC0000098C0000096C00000A7
S113001094C0000092C0000090C000008EC0000098
S11300208CC000008AC0000088C0000086C00000A8
S113003084C0000082C0000080C000007EC00000B8
S11300407CC000007AC0000078C0000076C00000C8
S113005074C0000072C0000070C000006EC00000D8
S11300606CC000006AC0000068C0000066C00000E8
S113007064C0000062C0000060C000005EC00000F8
S11300805CC000005AC0000058C0000056C0000008
S113009054C0000052C0000050C000004EC0000018
S11300A04CC000004AC0000048C0000046C0000028
S11300B044C0000042C0000040C000003EC0000038
S11300C03CC000003AC0000038C0000036C0000048
S11300D034C0000032C0000030C000002EC0000058
S11300E02CC00000A1029E02AE029B02AE02AB0233
S11300F09902AE02A702A902A502A30211241FBEFF
S1130100CFEFD1E2DEBFCDBF00E00CBF14E0A0E032
S1130110B2E0ECE6F7E000E00BBF02C007900D92FE
S1130120A830B107D9F724E0A8E0B4E001C01D92DB
S1130130AD31B207E1F7DDD217C362CF84B1876175
S113014084B984B1877F84B985B1816185B983E538
S11301508CBD1DBC089595B19F7E95B982608EBDFE
S11301600DB407FEFDCF8EB56EBD0DB407FEFDCFF9
S11301708EB585B1806185B9089595B19F7E95B995
S113018083608EBD0DB407FEFDCF8EB56EBD0DB47C
S113019007FEFDCF8EB585B1806185B9089595B10F
S11301A09F7E95B98EBD0DB407FEFDCF8EB51EBCE6
S11301B00DB407FEFDCF85B1806185B98EB5089574
S11301C095B19F7E95B981608EBD0DB407FEFDCFBC
S11301D08EB51EBC0DB407FEFDCF85B1806185B917
S11301E08EB50895FA0195B19F7E95B98EBD0DB473
S11301F007FEFDCF8EB580E007C01EBC0DB407FE20
S1130200FDCF9EB591938F5F8617B8F385B180615A
S113021085B90895FA0195B19F7E95B982608EBD26
S11302200DB407FEFDCF8DB580E009C09EB5908169
S11302309EBD0DB407FEFDCF9EB531968F5F861728
S1130240A8F385B1806185B9089560E288E783DF0A
S113025060E088E780DF88E6A2DF80FFFCCF0895B6
S113026060E380E678DF68E880E775CF0895109250
S11302700E0410920D0488E48093180481E08093A6
S11302801C0480931B0410921A04109219041092F7
S11302900A041092090410920B041092080410929C
S11302A00C044CDF6BE188E856DFCFDF60E080EAC6
S11302B052DF68E088E74FDFD3DF61E080E84BCFAF
S11302C0089588E66CDF82FF09C080EA68DF682F42
S11302D06B7F80EA40DF10920804089580910C043B
S11302E0882351F180EA5BDF86FD26C080EA57DF70
S11302F0682F6B7F80EA2FDF1092080488E74FDFB6
S1130300682F646088E727DF88E649DF81FFFCCF38
S113031088E745DF682F6B7F88E71DDF62E088E6AA
S11303201ADF80EA3CDF86FFFCCF64E088E613DF57
S113033088E635DF82FFFCCF089580910001829525
S113034086958695837091E0892781700895CF936F
S1130350DF93E0E1F4E02681878190E0982F8827FD
S1130360820F911D2381223059F018F42130F9F0C5
S113037004C0233051F02232A9F060E070E01BC0C9
S113038043EB53E062E470E016C04091120420E4B1
S1130390429FA0011124FA01E85BFD4F608170E0E7
S11303A0AF0109C048E853E061E070E004C045EFE4
S11303B053E062E170E06115710561F0EB018617AD
S11303C0970708F4EC016C2F80E024DF6C2F88E29F
S11303D0D4DE03C063E288E4BEDEDF91CF910895EA
S11303E0CF93C82F809110048230F1F490911204BD
S11303F091111AC0909114049338B1F488E4CFDEBB
S1130400C13031F4C0E1C80F81E080930E0407C00D
S1130410C82FCF7E10920E0460E180E59CDE6C2F25
S1130420606488E498DE0FC081110AC080911204D0
S1130430813031F4CC0FC0930C0488E9C1DE03C0D1
S113044063E288E488DECF910895809110048138B6
S113045081F08238C1F0803841F560910C046F5FFF
S113046080E079DE60E080E076DE62E088E285CEDE
S1130470089560E080E06FDE60E080E06CDE62E0C2
S113048088E27BCE089580911404833859F46091F6
S11304900E0480E060DE60E080E05DDE62E088E221
S11304A06CCE089563E288E456DE63E288E453CEBA
S11304B0089580911204811107C080911404811160
S11304C003C088E97DCE089563E288E444CE0895AC
S11304D080911404811106C060E03DDE61E088E291
S11304E04CCE089563E288E436CE089560910B04FF
S11304F080E031DE61E088E240CE0895809112040C
S113050080930B04882331F080E749DE682F606113
S113051080E721DE88E954CE08958091110490E0AB
S11305208C309105D8F4FC018827EE58FF4F8F4F8B
S113053013C10DCF089581E053CF089580E050CFCB
S1130540089583CF0895B5CF0895C2CF0895CECF2F
S11305500895D4CF089588E933CE089563E288E4FA
S1130560FACD089563E288E4F6CD089563E288E461
S1130570F2CD089540E154E068E080E233DE8091FA
S113058010048076803231F0803431F0811106C05D
S1130590C4CF0895E7CF0895E9CF089563E288E4CE
S11305A0DACD089580911C04813051F460E088E133
S11305B0D2DD60E088E1CFDD60E088E1CCDD47C0DA
S11305C080911B04813061F460E088E1C4DD60E067
S11305D088E1C1DD60E088E1BEDD10921B0437C014
S11305E081E080931B04E0910D048E0F80930D0431
S11305F0F0E0E050FE4F608188E1ADDDE0910D0454
S113060081E08E0F80930D04F0E0E050FE4F608196
S113061088E1A1DDE0910D0481E08E0F80930D044B
S1130620F0E0E050FE4F608188E195DD90910D048B
S113063080911804981758F010920D0480EAAFDDE9
S1130640682F6E7F80EA87DD81E080931C0463E07D
S113065080E481CD0895CF93DF9388E5A0DDC82F92
S113066088E69DDDD82FC5FF04C060E288E573DD10
S113067081DFC4FD97DF80910B048823A1F0D4FFB0
S113068012C064E188E667DD80EA89DD682F646072
S113069080EA61DD80EA83DD682F677F80EA5BDDC5
S11306A081E08093080488E67ADD83FF0FC080EA46
S11306B076DD682F626080EA4EDD80EA70DD682FA7
S11306C06B7F80EA48DD68E088E645DD88E667DD23
S11306D0882364F480EA63DD682F6D7F80EA3BDD64
S11306E060E888E638DD10920804BADDDF91CF9126
S11306F00895BDDD809108048111E3DD1EDE8111C2
S1130700AADF8091190490911A04019690931A0417
S1130710809319048837974369F710921A0410924A
S1130720190480EA3CDD84FF10921C0480910904C2
S113073090910A04019690930A04809309044997BE
S1130740C9F610920A041092090480EA28DD68E0D0
S1130750682780EA00DDCECFEE0FFF1F881F8BBF16
S10F07600790F691E02D1994F894FFCF57
S113076C00002802001700000B00000800002C02F7
S113077C001002000402001B0000200000210000F5
S113078C1F00001E02000800002C000007000012CD
S113079C00000800001600002C02001802001602CB
S11307AC000502001E0000280403090400000000D8
S11307BC0000000000000000000000000000000029
S11307CC0000000000000000000000000000000019
S11307DC0000000000000000000000000000000009
S11307EC00000000000000000B034D0061007800C5
S11307FC69006D0000000000000000000000000013
S113080C00000000000000000000000000000000D8
S113081C00000000000000000000000000000000C8
S113082C000000000000000018034D0041005800B7
S113083C33003400320031004500200045006E00C6
S113084C75006D00200043006F006400650000001B
S113085C0000000000000000000000000000000088
S113086C0000000000000000140353002F004E0091
S113087C2000330034003200310045000000000039
S113088C0000000000000000000000000000000058
S113089C0000000000000000000000000000000048
S11308AC00000000000000000A034D004900440051
S11308BC49000000000000000000000000000000DF
S11308CC0000000000000000000000000000000018
S11308DC0000000000000000000000000000000008
S11308EC000000000000000005010906A101050735
S11308FC19E029E715002501750195088102950178
S113090C750881011900296515002565750895017F
S113091C8100C009024200020100E0010904000048
S113092C000101000009240100010900010109046E
S113093C0100010103000007240100011000092437
S113094C03011201000100090583024000000000AC
S113095C052501011212010001000000206A0B465A
S10B096C5334120102030100DF
S9030000FC
