:1000000071C0000079C0000077C0000075C000001A
:1000100073C0000071C000006FC000006DC0000020
:100020006BC0000069C0000067C0000065C0000030
:1000300063C0000061C000005FC000005DC0000040
:100040005BC0000059C0000057C0000055C0000050
:1000500053C0000051C000004FC000004DC0000060
:100060004BC0000049C0000047C0000045C0000070
:1000700043C0000041C000003FC000003DC0000080
:100080003BC0000039C0000037C0000035C0000090
:1000900033C0000031C000002FC000002DC00000A0
:1000A0002BC0000029C0000027C0000025C00000B0
:1000B00023C0000021C000001FC000001DC00000C0
:1000C0001BC0000019C0000017C0000015C00000D0
:1000D00013C0000011C000000FC000000DC00000E0
:1000E0000BC0000011241FBECFEFD1E2DEBFCDBF99
:1000F00000E00CBFC4D03EC183CF88B962B9000014
:1001000084B38B7F84BB000084B3846084BB089578
:100110008FEF81B987B980E88AB987E083BB8BB15B
:100120008F778BB984B38D7F84BB84B3816084BBAC
:100130002FEF84E39CE0215080409040E1F700C025
:10014000000084B38E7F84BB2FEF84E39CE02150BA
:1001500080409040E1F700C0000084B3816084BB20
:100160002FEF84E39CE0215080409040E1F700C0F5
:10017000000060E081E0C1DF2FE788E391E02150DB
:1001800080409040E1F700C0000060E08AE3B5DF06
:100190008BB180688BB960E085E5AFDF8BB18F777D
:1001A0008BB9089560E088E2A8CF089560E089E205
:1001B000A4CF089560E081E1A0DF8FE39CE901977F
:1001C000F1F700C0000008958F929F92AF92BF9206
:1001D000CF92DF92EF920F93CF93DF934A015901B1
:1001E000003208F00FE18FE18C1520F40F2EFFE1B3
:1001F000CF2EF02D8FE38E1520F40F2EFFE3EF2E80
:10020000F02D60E08CE279DF8BB180688BB9CC0C8B
:10021000CC0CCC0C2E2D30E0C90195958795959589
:10022000879595958795220F331F22953295307FBC
:100230003227207F3227EC2CE82A022BC12CD12C2C
:10024000C814D90470F4C0E0D0E0CA15DB0528F466
:100250006E2D802F52DF2196F8CF8FEFC81AD80A63
:10026000EFCF8BB18F778BB9DF91CF910F91EF905B
:10027000DF90CF90BF90AF909F908F90089548DF10
:100280002FEF84E39CE0215080409040E1F700C0D4
:10029000000090DF2FEF89E698E1215080409040E8
:1002A000E1F700C000007EDF2FEF89E698E12150E2
:1002B00080409040E1F700C0000078DF2FEF89E632
:1002C00098E1215080409040E1F700C000006ADFD3
:1002D0002FEF84E39CE0215080409040E1F700C084
:1002E000000064DF2FEF84E39CE0215080409040C9
:1002F000E1F700C0000056DF2FEF84E39CE02150BF
:1003000080409040E1F700C0000050DF2FEF84E311
:100310009CE0215080409040E1F700C0000042DFA7
:100320002FEF84E39CE0215080409040E1F700C033
:1003300000003CDF2FEF84E39CE0215080409040A0
:10034000E1F700C00000CC24CA94E12C00E028ECC6
:1003500030E048EC50E060E070E080E090E034DFB6
:100360002FEF89E698E1215080409040E1F700C0EE
:080370000000E9CFF894FFCF73
:00000001FF
