:1000000071C0000079C0000077C0000075C000001A
:1000100073C0000071C000006FC000006DC0000020
:100020006BC0000069C0000067C0000065C0000030
:1000300063C0000061C000005FC000005DC0000040
:100040005BC0000059C0000057C0000055C0000050
:1000500053C0000051C000004FC000004DC0000060
:100060004BC0000049C0000047C0000045C0000070
:1000700043C0000041C000003FC000003DC0000080
:100080003BC0000039C0000037C0000035C0000090
:1000900033C0000031C000002FC000002DC00000A0
:1000A0002BC0000029C0000027C0000025C00000B0
:1000B00023C0000021C000001FC000001DC00000C0
:1000C0001BC0000019C0000017C0000015C00000D0
:1000D00013C0000011C000000FC000000DC00000E0
:1000E0000BC0000011241FBECFEFD1E2DEBFCDBF99
:1000F00000E00CBFCDD048C183CF88B962B9089564
:100100008FEF81B987B980E88AB987E083BB8BB16B
:100110008F778BB984B38D7F84BB84B3816084BBBC
:100120002FEF84E39CE0215080409040E1F700C035
:10013000000084B38E7F84BB2FEF84E39CE02150CA
:1001400080409040E1F700C0000084B3816084BB30
:100150002FEF84E39CE0215080409040E1F700C005
:10016000000060E081E0C9DF2FE788E391E02150E3
:1001700080409040E1F700C00000089560E088E210
:10018000BCDF84B38B7F84BB000084B3846084BBFA
:10019000089560E089E2B1DF84B38B7F84BB000007
:1001A00084B3846084BB089560E081E1A6DF84B3FA
:1001B0008B7F84BB000084B3846084BB8FE39CE9A5
:1001C0000197F1F700C000000895AF92BF92CF925F
:1001D000EF920F93CF93DF935A01E901003208F0B9
:1001E0000FE18FE18C1520F40F2EFFE1CF2EF02DC3
:1001F0008FE38E1520F40F2EFFE3EF2EF02D60E03D
:100200008CE27BDF84B38B7F84BB0000000084B36F
:10021000846084BB8BB180688BB9000F000F000F26
:100220002E2D30E0B9017595679575956795759593
:100230006795220F331F22953295307F3227207F1A
:100240003227602B8C2D822B40E050E04A155B0555
:1002500098F420E030E02C173D0758F494B39B7FCE
:1002600094BB0000000094B3946094BB2F5F3F4F99
:10027000F2CF4F5F5F4FEACF40DF8BB18F778BB903
:10028000DF91CF910F91EF90CF90BF90AF900895F5
:1002900037DF2FEF84E39CE0215080409040E1F76E
:1002A00000C0000081DF2FEF89E698E121508040F7
:1002B0009040E1F700C0000061DF2FEF89E698E190
:1002C000215080409040E1F700C0000062DF2FEF36
:1002D00089E698E1215080409040E1F700C000009D
:1002E0004DDF2FEF84E39CE0215080409040E1F708
:1002F00000C000004EDF2FEF84E39CE021508040DF
:100300009040E1F700C0000039DF2FEF84E39CE06C
:10031000215080409040E1F700C000003ADF2FEF0D
:1003200084E39CE0215080409040E1F700C0000051
:1003300025DF2FEF84E39CE0215080409040E1F7DF
:1003400000C0000026DF2FEF84E39CE021508040B6
:100350009040E1F700C00000CC24CA94EE24EA9457
:100360000FEF28EC30E048EC50E060E070E080E017
:1003700090E02BDF2FEF89E698E1215080409040FC
:0C038000E1F700C00000E8CFF894FFCFC8
:00000001FF
