:1000000071C0000081C000007FC000007DC0000002
:100010007BC0000079C0000077C0000075C0000000
:1000200073C0000071C000006FC000006DC0000010
:100030006BC0000069C0000067C0000065C0000020
:1000400063C0000061C000005FC000005DC0000030
:100050005BC0000059C0000057C0000055C0000040
:1000600053C0000051C000004FC000004DC0000050
:100070004BC0000049C0000047C0000045C0000060
:1000800043C0000041C000003FC000003DC0000070
:100090003BC0000039C0000037C0000035C0000080
:1000A00033C0000031C000002FC000002DC0000090
:1000B0002BC0000029C0000027C0000025C00000A0
:1000C00023C0000021C000001FC000001DC00000B0
:1000D0001BC0000019C0000017C0000015C00000C0
:1000E00013C0000011241FBECFEFD1E2DEBFCDBF91
:1000F00000E00CBF22E0A0E0B2E001C01D92A830F9
:10010000B207E1F7E6D15FC27BCF88B962B90000E0
:1001100084B38B7F84BB000084B3846084BB089568
:100120008FEF81B987B980E88AB987E083BB8BB14B
:100130008F778BB984B38D7F84BB84B3816084BB9C
:100140002FEF84E39CE0215080409040E1F700C015
:10015000000084B38E7F84BB2FEF84E39CE02150AA
:1001600080409040E1F700C0000084B3816084BB10
:100170002FEF84E39CE0215080409040E1F700C0E5
:10018000000060E081E0C1DF2FE788E391E02150CB
:1001900080409040E1F700C0000060E08AE3B5DFF6
:1001A0008BB180688BB960E085E5AFDF8BB18F776D
:1001B0008BB9089560E088E2A8CF089560E089E2F5
:1001C000A4CF089560E081E1A0DF8FE39CE901976F
:1001D000F1F700C0000008950F931F93CF93DF93B2
:1001E0008C01EB01603F710510F0CFEED0E0C0173D
:1001F000D10718F48E0101501109109307020093E2
:100200000602D0930302C093020260E08AE27DDF1F
:100210008BB180688BB960E080E077DF60E0802F91
:1002200074DF60E080E071DF60E08C2F6EDF8BB107
:100230008F778BB9DF91CF911F910F9108950F9315
:100240001F93CF93DF938C01EB016034714010F06A
:10025000CFE3D1E0C017D10718F48E010150110986
:100260001093050200930402D0930102C093000290
:1002700060E08BE24ADF8BB180688BB960E0812F50
:1002800044DF60E0802F41DF60E08D2F3EDF60E0E3
:100290008C2F3BDF8BB18F778BB9DF91CF911F9183
:1002A0000F9108958F929F92AF92BF92CF92DF925B
:1002B000EF920F93CF93DF935A014901003208F078
:1002C0000FE18FE18C1520F40F2EFFE1CF2EF02DE2
:1002D0008FE38E1520F40F2EFFE3EF2EF02D60E05C
:1002E0008CE213DF8BB180688BB9CC0CCC0CCC0CBE
:1002F0002E2D30E0C9019595879595958795959513
:100300008795220F331F22953295307F3227207F29
:100310003227EC2CE82A022BC12CD12CC814D9048A
:1003200070F4C0E0D0E0CA15DB0528F46E2D802FF4
:10033000ECDE2196F8CF8FEFC81AD80AEFCF8BB139
:100340008F778BB9DF91CF910F91EF90DF90CF90A6
:10035000BF90AF909F908F900895CF92EF920F93A0
:10036000082FE62EC42EA0E0B2E04D915C911197CB
:10037000E4E0F2E080819181481B590B12962D91A7
:100380003C91139762817381261B370B8BDF0F9192
:10039000EF90CF9008950F931F93CF93DF9368E76B
:1003A00070E086E490E04BDF6EE170E08FE090E07B
:1003B00013DF40E060E08FEFD0DF6CE870E082E3B5
:1003C00090E03DDF6AE570E08EE190E005DF40E01F
:1003D00060E08FEFC2DF00E010E00630110574F539
:1003E000E801CC0FDD1FCC0FDD1FC00FD11FBE01F8
:1003F00064577F4F87E890E022DF6AE570E0CE0126
:10040000CC96EADE40E060E08FEFA7DF68EC70E0BA
:10041000CE018A569F4F13DF2BEF2003C001219F8F
:10042000900D11246AE570E0865A9F4FD5DE40E0BA
:1004300060E08FEF92DF0F5F1F4FCFCF6AEF70E06A
:1004400088EC90E0FCDE6EE170E08FE090E0C4DECE
:1004500040E060E08FEF81DF6EE071E084EB90E0E0
:10046000EEDE6AE570E08EE190E0B6DE40E060E04E
:100470008FEF73DF00E010E00C3011052CF526EF54
:100480002003B001219F700D1124685E7E4FE801AA
:10049000CC0FDD1FC801880F991F880F991F880F87
:1004A000991FC80FD91FCE01C796C9DEBE016C596E
:1004B0007F4FCE01865A9F4F8FDE40E060E08FEF86
:1004C0004CDF0F5F1F4FD8CFDF91CF911F910F915E
:1004D000089526DE2FEF84E39CE021508040904079
:1004E000E1F700C000006EDE2FEF89E698E12150B1
:1004F00080409040E1F700C000005CDE2FEF89E60D
:1005000098E1215080409040E1F700C0000056DEA5
:100510002FEF89E698E1215080409040E1F700C03C
:10052000000048DE2FEF84E39CE0215080409040A3
:10053000E1F700C0000042DE2FEF84E39CE0215091
:1005400080409040E1F700C0000034DE2FEF84E3EC
:100550009CE0215080409040E1F700C000002EDE7A
:100560002FEF84E39CE0215080409040E1F700C0F1
:10057000000020DE2FEF84E39CE02150804090407B
:10058000E1F700C000001ADE2FEF84E39CE0215069
:1005900080409040E1F700C00000FDDE0BDE2FEF51
:1005A00084E39CE0215080409040E1F700C00000CF
:1005B00005DE2FEF88E09DE3215080409040E1F779
:0A05C00000C00000EBCFF894FFCF5D
:00000001FF
