:1000000071C000008EC000008CC000008AC00000DB
:1000100088C0000086C0000084C0000082C00000CC
:1000200080C000007EC000007CC000007AC00000DC
:1000300078C0000076C0000074C0000072C00000EC
:1000400070C000006EC000006CC000006AC00000FC
:1000500068C0000066C0000064C0000062C000000C
:1000600060C000005EC000005CC000005AC000001C
:1000700058C0000056C0000054C0000052C000002C
:1000800050C000004EC000004CC000004AC000003C
:1000900048C0000046C0000044C0000042C000004C
:1000A00040C000003EC000003CC000003AC000005C
:1000B00038C0000036C0000034C000005DC200003F
:1000C00030C000002EC000002CC000002AC000007C
:1000D00028C0000026C0000024C0000022C000008C
:1000E00020C0000011241FBECFEFD1E2DEBFCDBF84
:1000F00000E00CBF12E0A0E0B2E0E2EFFEE000E0C2
:100100000BBF02C007900D92A631B107D9F728E0C6
:10011000A6E1B2E001C01D92A335B207E1F7C6D651
:10012000E6C66ECF8FEF84B915B80895883060F4B5
:1001300021E030E0A90102C0440F551F8A95E2F783
:10014000CA0193B1892785B90895FC01039692836A
:1001500081832FEF3FEF34832383968385839087BA
:10016000878310820895FC01118610860895CF932D
:10017000DF93EB01488159814F3F2FEF520721F464
:10018000FC01A781B0850DC0DC01139601C0DF0121
:100190001296ED91FC9113972081318142175307FC
:1001A000B0F71296ED91FC911397FB83EA83D58308
:1001B000C483BD83AC831396DC93CE931297998747
:1001C0008887FC0120812F5F2083DF91CF910895E4
:1001D000CF93DF93FC01A085B185C281D381848157
:1001E00095819D838C83C481D581828193819B83FA
:1001F0008A8311968D919C911297E817F90731F433
:100200008481958112969C938E9311971186108606
:100210008C9181508C938C91DF91CF910895CF93E5
:10022000DF93EC01D9D38091160290911702892BAC
:1002300031F48AE192E0909317028093160220979E
:10024000C9F080911802909119029E01280F391F60
:100250002B3D45E0340788F48217930788F4C0915A
:100260001602D0911702C80FD91F3093190220939C
:10027000180208C0C0E0D0E005C0C0E0D0E002C075
:10028000C0E0D0E0C8D4CE01DF91CF9108950895A9
:100290001092290189EF809328018BE0809321013E
:1002A000E3E7F0E0808182608083089531E1FC0122
:1002B0003083319722E220833197A3E3A0833197E3
:1002C0006083319770833197108231971082319714
:1002D00060E86083319710823197108231971082E5
:1002E000319762E06083319763E06083319764E027
:1002F0006083319765E06083319766E06083319772
:1003000067E06083319768E06083319769E06083DC
:10031000319760E1608331973083319732E13083E8
:10032000319733E13083319734E13083319735E1D0
:100330003083319736E13083319737E1308331971D
:1003400038E13083319739E13083319730E23083BF
:10035000319731E2308331972083319723E2208334
:100360003197408331975083319726E2208331972C
:1003700027E22083319728E22083319729E22083E6
:10038000319720E32083319721E3208389970895D3
:100390007FDFA0915108B0915208CD91CDBFDD9182
:1003A000DEBFFF91EF91DF91CF91BF91AF919F9110
:1003B0008F917F916F915F914F913F912F911F91FD
:1003C0000F91FF90EF90DF90CF90BF90AF909F90F4
:1003D0008F907F906F905F904F903F902F901F90E5
:1003E0000F900CBE0F900BBE0F900FBE0F90089594
:1003F00081E008950F920FB6F8940F920BB60F920A
:100400000CB60F921F9211242F923F924F925F923F
:100410006F927F928F929F92AF92BF92CF92DF9214
:10042000EF92FF920F931F932F933F934F935F93FE
:100430006F937F938F939F93AF93BF93CF93DF93EC
:10044000EF93FF93A0915108B09152080DB60D9211
:100450000EB60D92C4D4A0915108B0915208CD911E
:10046000CDBFDD91DEBFFF91EF91DF91CF91BF91C5
:10047000AF919F918F917F916F915F914F913F913C
:100480002F911F910F91FF90EF90DF90CF90BF9031
:10049000AF909F908F907F906F905F904F903F9024
:1004A0002F901F900F900CBE0F900BBE0F900FBEA1
:1004B0000F9008950F920FB6F8940F920BB60F920B
:1004C0000CB60F921F9211242F923F924F925F927F
:1004D0006F927F928F929F92AF92BF92CF92DF9254
:1004E000EF92FF920F931F932F933F934F935F933E
:1004F0006F937F938F939F93AF93BF93CF93DF932C
:10050000EF93FF93A0915108B09152080DB60D9250
:100510000EB60D9267D2811162D4A0915108B091AC
:100520005208CD91CDBFDD91DEBFFF91EF91DF91FC
:10053000CF91BF91AF919F918F917F916F915F917B
:100540004F913F912F911F910F91FF90EF90DF906E
:10055000CF90BF90AF909F908F907F906F905F9063
:100560004F903F902F901F900F900CBE0F900BBE9E
:100570000F900FBE0F9008959DDF1895E091190818
:10058000F0911A088081811107C08FEF9FEF90933F
:10059000FA078093F9070895E0911908F0911A0875
:1005A0000580F681E02D808191819093FA078093F8
:1005B000F90708956F927F928F929F92AF92BF92A8
:1005C000CF92DF92EF920F931F93CF93DF93CDB72C
:1005D000DEB74C01F5018789908D215031093C012E
:1005E000620E731E6115710589F415C0822F90E0AB
:1005F000FB01E80FF91F3081D501A80FB91F5996EB
:100600003C938081882329F02F5F01C020E02830AF
:1006100068F3F50110A2F3E0FE1520F40F2EF3E0CD
:10062000EF2EF02DF501E68AC50102969CDDC5018D
:100630000C9699DDF501B186A08684E090E08E19D4
:10064000910995878487B38AA28AA801B401C3015E
:100650002DDEF50191838083C114D10419F0F601D8
:10066000B182A082DF91CF911F910F91EF90DF9027
:10067000CF90BF90AF909F908F907F906F90089594
:10068000CF93C0E00FC08C2F90E09C01220F331F4E
:10069000220F331F220F331F820F931F835D974F4B
:1006A00054DDCF5FC43078F384E298E04EDD8BE117
:1006B00098E04BDD8EE098E048DD85E098E045DD90
:1006C00084E298E090931A08809319088BE198E0EF
:1006D0009093180880931708CF910895CF93DF93D4
:1006E000EC010FB6F8940F92809104088F5F80930D
:1006F00004088091510890915208892B51F4D093AD
:100700005208C093510880910408813091F4B8DFF9
:1007100010C08091000881110CC0E0915108F09147
:10072000520896898E89891720F0D0935208C09379
:1007300051088091FB078F5F8093FB078E89909112
:100740000108981710F48093010890E0FC01EE0F67
:10075000FF1FEE0FFF1FEE0FFF1F8E0F9F1FFC01ED
:10076000E35DF74F0180F281E02DFD83EC8384810E
:1007700095819F838E83A481B581CE0102961396C5
:100780009C938E93129795838483EE89F0E0CF013A
:10079000880F991F880F991F880F991FE80FF91F5D
:1007A000E35DF74FFB87EA8780818F5F80830F903F
:1007B0000FBE80910008882349F0E0915108F09124
:1007C000520896898E89981708F414DEDF91CF912C
:1007D0000895FF920F931F93CF93DF93EC01F62EB2
:1007E00000910208109103088091510890915208DD
:1007F0000296EEDCCF3F8FEFD807B1F5FF20A1F1D5
:10080000E5E0F8E0A181B281C0915108D091520891
:10081000BD83AC83C0915108D091520814968D913C
:100820009C9115979F838E831496CD91DC9115979B
:10083000809151089091520802969B838A838091FF
:10084000510890915208029615969C938E93149796
:10085000A0915108B09152081B96FC93EE931A9701
:1008600080818F5F80832DC0C00FD11FE091510820
:10087000F0915208D383C283C017D10760F460910E
:1008800051087091520880911708909118086E5F76
:100890007F4F6DDC16C060915108709152088091B5
:1008A000190890911A086E5F7F4F61DC8091F907FB
:1008B0009091FA07C817D90720F4D093FA07C0938C
:1008C000F907DF91CF911F910F91FF9008958091CB
:1008D0002D08823008F08EDDE8D2F9CF2F923F92BA
:1008E0004F925F926F927F928F929F92AF92BF9240
:1008F000CF92DF92EF92FF920F931F93CF93DF93EC
:100900003C011B015A012901CA0189DC6C01892BB8
:1009100089F086E290E083DCEC01892B41F086E2ED
:10092000FE0111928A95E9F7D88ECF8A05C0C601DB
:10093000AEDC02C0C0E0D0E0209781F0950140E03D
:1009400050E0812C912C5E016701E02E8201B10103
:10095000C30130DECE01C2DE81E001C08FEFDF9146
:10096000CF911F910F91FF90EF90DF90CF90BF90AC
:10097000AF909F908F907F906F905F904F903F903F
:100980002F900895EF92FF920F930F2EF7EFEF2E17
:10099000F7E0FF2EF02D00E020E030E045E550E0EC
:1009A00061E072E087E694E099DF813079F4F894B1
:1009B0008FEF9FEF9093FA078093F90781E0809380
:1009C00000081092030810920208E2DC80910002F5
:1009D0000F91FF90EF9008958091F6078F5F8093BD
:1009E000F60708950F931F93CF93DF938091F60737
:1009F000811100C1C0910208D09103088E010F5FE0
:100A00001F4F109303080093020801151105B1F45C
:100A10008091190890911A082091170830911808B0
:100A200030931A0820931908909318088093170898
:100A30008091FC078F5F8093FC07A0DD8091F90710
:100A40009091FA070817190720F480E0B8C081E0F8
:100A500001C080E0E0911908F0911A08908191118D
:100A600007C02FEF3FEF3093FA072093F907A7C095
:100A7000E0911908F0911A080580F681E02D0680B2
:100A8000F781E02D228133810217130728F4309378
:100A9000FA072093F90793C0A285B3852481358195
:100AA00046815781E9015D834C83268137814481EA
:100AB0005581E9015B834A8311962D913C911297F0
:100AC000AF014E5F5F4F2417350731F42681378120
:100AD00012963C932E931197138612869C919150F7
:100AE0009C93A489B589109719F12685378560896B
:100AF0007189E9017D836C832089318966857785D9
:100B0000E9017B836A8311966D917C9112979F0115
:100B1000245F3F4F6217730731F4208931891296A1
:100B20003C932E931197158A148A9C9191509C9313
:100B3000268990910108921710F42093010830E063
:100B4000D901AA0FBB1FAA0FBB1FAA0FBB1F2A0FD9
:100B50003B1FD901A35DB74F11960D90BC91A02DFD
:100B6000B583A48314962D913C91159737832683E2
:100B700014962D913C911597E9015B834A83159654
:100B80005C934E931497A689B0E09D01220F331F0A
:100B9000220F331F220F331FA20FB31FA35DB74FC6
:100BA000B387A2879C919F5F9C932689E09151080F
:100BB000F09152089689921708F449CF4BCFE091F3
:100BC0005108F0915208268930E0F901EE0FFF1F1D
:100BD000EE0FFF1FEE0FFF1F2E0F3F1FF901E35D0A
:100BE000F74F9081923008F081E09091FD079111CC
:100BF0000CC00CC08091FE079091FF070196909366
:100C0000FF078093FE0780E001C081E0DF91CF9174
:100C10001F910F910895CF93DF930FB6F8940F9221
:100C20008091F60781508093F6078091F607811135
:100C3000BCC080910408811196C0BAC0E09113082D
:100C4000F09114080680F781E02DA489B589C68546
:100C5000D785808991899D838C83C089D189868538
:100C600097859B838A8311962D913C911297CF0192
:100C70000C962817390731F48089918912969C9334
:100C80008E931197158A148A8C9181508C93A2852A
:100C9000B385C481D581868197819D838C83C681EC
:100CA000D781848195819B838A8311968D919C91B4
:100CB00012979F012E5F3F4F8217930731F4868171
:100CC000978112969C938E931197138612868C911E
:100CD00081508C93868990910108981710F4809325
:100CE000010890E0DC01AA0FBB1FAA0FBB1FAA0FCF
:100CF000BB1F8A0F9B1FDC01A35DB74F11960D90A0
:100D0000BC91A02DB583A48314968D919C911597C9
:100D1000978386831496CD91DC9115973B832A8324
:100D200015963C932E931497A689B0E0CD01880FB9
:100D3000991F880F991F880F991FA80FB91FA35DCE
:100D4000B74FB387A2878C918F5F8C939689A091C0
:100D50005108B091520856968C91981730F081E066
:100D60008093FD0702C0E0E0F0E080910E08811161
:100D700065CFEF2B09F002DCC091FE07D091FF0791
:100D8000209761F02FDE882319F081E08093FD0722
:100D90002197C1F71092FF071092FE078091FD077F
:100DA000882329F027DB81E003C080E001C080E0D8
:100DB0000F900FBEDF91CF910895CF93DF93EC0199
:100DC000892B31F009DE60E0CE0103DD24DF01C0B4
:100DD00080E0811101C00EDBDF91CF9108958091F9
:100DE000F607882321F081E08093FD070895109293
:100DF000FD072091010801C02150822F90E0FC01E5
:100E0000EE0FFF1FEE0FFF1FEE0FFF1FE80FF91F82
:100E1000E35DF74F3081332379F3AC01440F551F65
:100E2000440F551F440F551F480F591FDF01018004
:100E3000F281E02D0280F381E02D1296FC93EE9377
:100E40001197405D574FE417F50729F4428153810C
:100E5000FD0152834183FC01EE0FFF1FEE0FFF1FC8
:100E6000EE0FFF1F8E0F9F1FFC01E35DF74F018008
:100E7000F281E02D868197819093520880935108EA
:100E800020930108089588EE93E097DF80E04ED923
:100E9000FACF81E04BD988EE93E08FDFFACF82E082
:100EA00045D984EF91E089DFFACF08953BD9E12C51
:100EB000F12C00E020E030E045E550E066E072E033
:100EC00083E497E00BDD20E030E045E550E06BE0A7
:100ED00072E089E497E002DD20E030E045E550E093
:100EE00060E172E08FE497E0F9DC4CDDFFCFF8942D
:020EF000FFCF32
:100EF2000349444C45004C454431004C45443200C2
:060F02004C4544330000E1
:00000001FF
